{
  "contractName": "InnovationLab",
  "abi": [
    {
      "inputs": [],
      "payable": true,
      "stateMutability": "payable",
      "type": "constructor",
      "signature": "constructor"
    },
    {
      "constant": false,
      "inputs": [
        {
          "name": "_x",
          "type": "string"
        },
        {
          "components": [
            {
              "name": "doctorName",
              "type": "string"
            },
            {
              "name": "doctorDoB",
              "type": "string"
            },
            {
              "name": "doctorId",
              "type": "string"
            }
          ],
          "name": "y",
          "type": "tuple"
        }
      ],
      "name": "doctorFirstLogin",
      "outputs": [],
      "payable": false,
      "stateMutability": "nonpayable",
      "type": "function",
      "signature": "0x7b9d97a7"
    },
    {
      "constant": false,
      "inputs": [
        {
          "name": "_x",
          "type": "string"
        },
        {
          "components": [
            {
              "name": "patientName",
              "type": "string"
            },
            {
              "name": "patientDoB",
              "type": "string"
            },
            {
              "name": "patientId",
              "type": "string"
            }
          ],
          "name": "y",
          "type": "tuple"
        }
      ],
      "name": "patientFirstLogin",
      "outputs": [],
      "payable": false,
      "stateMutability": "nonpayable",
      "type": "function",
      "signature": "0x65bbd0ba"
    },
    {
      "constant": true,
      "inputs": [],
      "name": "readPatientDetails",
      "outputs": [
        {
          "components": [
            {
              "name": "patientName",
              "type": "string"
            },
            {
              "name": "patientDoB",
              "type": "string"
            },
            {
              "name": "patientId",
              "type": "string"
            }
          ],
          "name": "",
          "type": "tuple"
        }
      ],
      "payable": false,
      "stateMutability": "view",
      "type": "function",
      "signature": "0x09d9cba8"
    },
    {
      "constant": true,
      "inputs": [],
      "name": "readDoctorDetails",
      "outputs": [
        {
          "components": [
            {
              "name": "doctorName",
              "type": "string"
            },
            {
              "name": "doctorDoB",
              "type": "string"
            },
            {
              "name": "doctorId",
              "type": "string"
            }
          ],
          "name": "",
          "type": "tuple"
        }
      ],
      "payable": false,
      "stateMutability": "view",
      "type": "function",
      "signature": "0x679a03cd"
    },
    {
      "constant": true,
      "inputs": [
        {
          "name": "_patientDoB",
          "type": "string"
        },
        {
          "name": "_patientId",
          "type": "string"
        }
      ],
      "name": "readMedicalRecord",
      "outputs": [
        {
          "components": [
            {
              "name": "prescription",
              "type": "string"
            },
            {
              "name": "diagnosis",
              "type": "string"
            },
            {
              "name": "medicines",
              "type": "string[]"
            },
            {
              "name": "quantity",
              "type": "uint256[]"
            }
          ],
          "name": "",
          "type": "tuple[]"
        }
      ],
      "payable": false,
      "stateMutability": "view",
      "type": "function",
      "signature": "0xb6a54c01"
    },
    {
      "constant": false,
      "inputs": [
        {
          "name": "_patientDoB",
          "type": "string"
        },
        {
          "name": "_patientId",
          "type": "string"
        },
        {
          "components": [
            {
              "name": "prescription",
              "type": "string"
            },
            {
              "name": "diagnosis",
              "type": "string"
            },
            {
              "name": "medicines",
              "type": "string[]"
            },
            {
              "name": "quantity",
              "type": "uint256[]"
            }
          ],
          "name": "y",
          "type": "tuple"
        }
      ],
      "name": "writeMedicalRecord",
      "outputs": [],
      "payable": false,
      "stateMutability": "nonpayable",
      "type": "function",
      "signature": "0x75f80fc1"
    }
  ],
  "bytecode": "0x6080604052612541806100136000396000f3fe608060405260043610610078576000357c0100000000000000000000000000000000000000000000000000000000900463ffffffff16806309d9cba81461007d57806365bbd0ba146100a8578063679a03cd146100d157806375f80fc1146100fc5780637b9d97a714610125578063b6a54c011461014e575b600080fd5b34801561008957600080fd5b5061009261018b565b60405161009f919061232f565b60405180910390f35b3480156100b457600080fd5b506100cf60048036036100ca9190810190611fcf565b610416565b005b3480156100dd57600080fd5b506100e6610620565b6040516100f3919061230d565b60405180910390f35b34801561010857600080fd5b50610123600480360361011e9190810190611ecc565b6108ab565b005b34801561013157600080fd5b5061014c60048036036101479190810190611f63565b610b2c565b005b34801561015a57600080fd5b5061017560048036036101709190810190611e60565b610d36565b60405161018291906122eb565b60405180910390f35b6101936117f7565b60026000803373ffffffffffffffffffffffffffffffffffffffff1673ffffffffffffffffffffffffffffffffffffffff168152602001908152602001600020541415156101e057600080fd5b600260003373ffffffffffffffffffffffffffffffffffffffff1673ffffffffffffffffffffffffffffffffffffffff16815260200190815260200160002060606040519081016040529081600082018054600181600116156101000203166002900480601f0160208091040260200160405190810160405280929190818152602001828054600181600116156101000203166002900480156102c45780601f10610299576101008083540402835291602001916102c4565b820191906000526020600020905b8154815290600101906020018083116102a757829003601f168201915b50505050508152602001600182018054600181600116156101000203166002900480601f0160208091040260200160405190810160405280929190818152602001828054600181600116156101000203166002900480156103665780601f1061033b57610100808354040283529160200191610366565b820191906000526020600020905b81548152906001019060200180831161034957829003601f168201915b50505050508152602001600282018054600181600116156101000203166002900480601f0160208091040260200160405190810160405280929190818152602001828054600181600116156101000203166002900480156104085780601f106103dd57610100808354040283529160200191610408565b820191906000526020600020905b8154815290600101906020018083116103eb57829003601f168201915b505050505081525050905090565b6104546040805190810160405280600781526020017f50617469656e740000000000000000000000000000000000000000000000000081525061177a565b61045d8361177a565b14151561046957600080fd5b60008060003373ffffffffffffffffffffffffffffffffffffffff1673ffffffffffffffffffffffffffffffffffffffff168152602001908152602001600020541415156104b657600080fd5b60026000803373ffffffffffffffffffffffffffffffffffffffff1673ffffffffffffffffffffffffffffffffffffffff168152602001908152602001600020819055508060200151600382604001516040518082805190602001908083835b60208310151561053b5780518252602082019150602081019050602083039250610516565b6001836020036101000a03801982511681845116808217855250505050505090500191505090815260200160405180910390209080519060200190610581929190611819565b5080600260003373ffffffffffffffffffffffffffffffffffffffff1673ffffffffffffffffffffffffffffffffffffffff16815260200190815260200160002060008201518160000190805190602001906105de929190611899565b5060208201518160010190805190602001906105fb929190611899565b506040820151816002019080519060200190610618929190611899565b509050505050565b610628611919565b60016000803373ffffffffffffffffffffffffffffffffffffffff1673ffffffffffffffffffffffffffffffffffffffff1681526020019081526020016000205414151561067557600080fd5b600160003373ffffffffffffffffffffffffffffffffffffffff1673ffffffffffffffffffffffffffffffffffffffff16815260200190815260200160002060606040519081016040529081600082018054600181600116156101000203166002900480601f0160208091040260200160405190810160405280929190818152602001828054600181600116156101000203166002900480156107595780601f1061072e57610100808354040283529160200191610759565b820191906000526020600020905b81548152906001019060200180831161073c57829003601f168201915b50505050508152602001600182018054600181600116156101000203166002900480601f0160208091040260200160405190810160405280929190818152602001828054600181600116156101000203166002900480156107fb5780601f106107d0576101008083540402835291602001916107fb565b820191906000526020600020905b8154815290600101906020018083116107de57829003601f168201915b50505050508152602001600282018054600181600116156101000203166002900480601f01602080910402602001604051908101604052809291908181526020018280546001816001161561010002031660029004801561089d5780601f106108725761010080835404028352916020019161089d565b820191906000526020600020905b81548152906001019060200180831161088057829003601f168201915b505050505081525050905090565b60016000803373ffffffffffffffffffffffffffffffffffffffff1673ffffffffffffffffffffffffffffffffffffffff168152602001908152602001600020541415156108f857600080fd5b6109018361177a565b610a0d6003846040518082805190602001908083835b60208310151561093c5780518252602082019150602081019050602083039250610917565b6001836020036101000a03801982511681845116808217855250505050505090500191505090815260200160405180910390208054600181600116156101000203166002900480601f016020809104026020016040519081016040528092919081815260200182805460018160011615610100020316600290048015610a035780601f106109d857610100808354040283529160200191610a03565b820191906000526020600020905b8154815290600101906020018083116109e657829003601f168201915b505050505061177a565b141515610a1957600080fd5b6004826040518082805190602001908083835b602083101515610a515780518252602082019150602081019050602083039250610a2c565b6001836020036101000a038019825116818451168082178552505050505050905001915050908152602001604051809103902081908060018154018082558091505090600182039060005260206000209060040201600090919290919091506000820151816000019080519060200190610acc929190611899565b506020820151816001019080519060200190610ae9929190611899565b506040820151816002019080519060200190610b0692919061193b565b506060820151816003019080519060200190610b2392919061199b565b50505050505050565b610b6a6040805190810160405280600681526020017f446f63746f72000000000000000000000000000000000000000000000000000081525061177a565b610b738361177a565b141515610b7f57600080fd5b60008060003373ffffffffffffffffffffffffffffffffffffffff1673ffffffffffffffffffffffffffffffffffffffff16815260200190815260200160002054141515610bcc57600080fd5b60016000803373ffffffffffffffffffffffffffffffffffffffff1673ffffffffffffffffffffffffffffffffffffffff168152602001908152602001600020819055508060200151600382604001516040518082805190602001908083835b602083101515610c515780518252602082019150602081019050602083039250610c2c565b6001836020036101000a03801982511681845116808217855250505050505090500191505090815260200160405180910390209080519060200190610c97929190611819565b5080600160003373ffffffffffffffffffffffffffffffffffffffff1673ffffffffffffffffffffffffffffffffffffffff1681526020019081526020016000206000820151816000019080519060200190610cf4929190611899565b506020820151816001019080519060200190610d11929190611899565b506040820151816002019080519060200190610d2e929190611899565b509050505050565b606060016000803373ffffffffffffffffffffffffffffffffffffffff1673ffffffffffffffffffffffffffffffffffffffff1681526020019081526020016000205414156111ee57610d888361177a565b610e946003846040518082805190602001908083835b602083101515610dc35780518252602082019150602081019050602083039250610d9e565b6001836020036101000a03801982511681845116808217855250505050505090500191505090815260200160405180910390208054600181600116156101000203166002900480601f016020809104026020016040519081016040528092919081815260200182805460018160011615610100020316600290048015610e8a5780601f10610e5f57610100808354040283529160200191610e8a565b820191906000526020600020905b815481529060010190602001808311610e6d57829003601f168201915b505050505061177a565b141515610ea057600080fd5b6004826040518082805190602001908083835b602083101515610ed85780518252602082019150602081019050602083039250610eb3565b6001836020036101000a0380198251168184511680821785525050505050509050019150509081526020016040518091039020805480602002602001604051908101604052809291908181526020016000905b828210156111e3578382906000526020600020906004020160806040519081016040529081600082018054600181600116156101000203166002900480601f016020809104026020016040519081016040528092919081815260200182805460018160011615610100020316600290048015610fe85780601f10610fbd57610100808354040283529160200191610fe8565b820191906000526020600020905b815481529060010190602001808311610fcb57829003601f168201915b50505050508152602001600182018054600181600116156101000203166002900480601f01602080910402602001604051908101604052809291908181526020018280546001816001161561010002031660029004801561108a5780601f1061105f5761010080835404028352916020019161108a565b820191906000526020600020905b81548152906001019060200180831161106d57829003601f168201915b5050505050815260200160028201805480602002602001604051908101604052809291908181526020016000905b82821015611174578382906000526020600020018054600181600116156101000203166002900480601f0160208091040260200160405190810160405280929190818152602001828054600181600116156101000203166002900480156111605780601f1061113557610100808354040283529160200191611160565b820191906000526020600020905b81548152906001019060200180831161114357829003601f168201915b5050505050815260200190600101906110b8565b505050508152602001600382018054806020026020016040519081016040528092919081815260200182805480156111cb57602002820191906000526020600020905b8154815260200190600101908083116111b7575b50505050508152505081526020019060010190610f2b565b505050509050611774565b60026000803373ffffffffffffffffffffffffffffffffffffffff1673ffffffffffffffffffffffffffffffffffffffff1681526020019081526020016000205414156117735761123e8261177a565b611321600260003373ffffffffffffffffffffffffffffffffffffffff1673ffffffffffffffffffffffffffffffffffffffff1681526020019081526020016000206002018054600181600116156101000203166002900480601f0160208091040260200160405190810160405280929190818152602001828054600181600116156101000203166002900480156113175780601f106112ec57610100808354040283529160200191611317565b820191906000526020600020905b8154815290600101906020018083116112fa57829003601f168201915b505050505061177a565b14151561132d57600080fd5b6113368361177a565b611419600260003373ffffffffffffffffffffffffffffffffffffffff1673ffffffffffffffffffffffffffffffffffffffff1681526020019081526020016000206001018054600181600116156101000203166002900480601f01602080910402602001604051908101604052809291908181526020018280546001816001161561010002031660029004801561140f5780601f106113e45761010080835404028352916020019161140f565b820191906000526020600020905b8154815290600101906020018083116113f257829003601f168201915b505050505061177a565b14151561142557600080fd5b6004826040518082805190602001908083835b60208310151561145d5780518252602082019150602081019050602083039250611438565b6001836020036101000a0380198251168184511680821785525050505050509050019150509081526020016040518091039020805480602002602001604051908101604052809291908181526020016000905b82821015611768578382906000526020600020906004020160806040519081016040529081600082018054600181600116156101000203166002900480601f01602080910402602001604051908101604052809291908181526020018280546001816001161561010002031660029004801561156d5780601f106115425761010080835404028352916020019161156d565b820191906000526020600020905b81548152906001019060200180831161155057829003601f168201915b50505050508152602001600182018054600181600116156101000203166002900480601f01602080910402602001604051908101604052809291908181526020018280546001816001161561010002031660029004801561160f5780601f106115e45761010080835404028352916020019161160f565b820191906000526020600020905b8154815290600101906020018083116115f257829003601f168201915b5050505050815260200160028201805480602002602001604051908101604052809291908181526020016000905b828210156116f9578382906000526020600020018054600181600116156101000203166002900480601f0160208091040260200160405190810160405280929190818152602001828054600181600116156101000203166002900480156116e55780601f106116ba576101008083540402835291602001916116e5565b820191906000526020600020905b8154815290600101906020018083116116c857829003601f168201915b50505050508152602001906001019061163d565b5050505081526020016003820180548060200260200160405190810160405280929190818152602001828054801561175057602002820191906000526020600020905b81548152602001906001019080831161173c575b505050505081525050815260200190600101906114b0565b505050509050611774565b5b92915050565b6000816040516020018082805190602001908083835b6020831015156117b55780518252602082019150602081019050602083039250611790565b6001836020036101000a038019825116818451168082178552505050505050905001915050604051602081830303815290604052805190602001209050919050565b6060604051908101604052806060815260200160608152602001606081525090565b828054600181600116156101000203166002900490600052602060002090601f016020900481019282601f1061185a57805160ff1916838001178555611888565b82800160010185558215611888579182015b8281111561188757825182559160200191906001019061186c565b5b50905061189591906119e8565b5090565b828054600181600116156101000203166002900490600052602060002090601f016020900481019282601f106118da57805160ff1916838001178555611908565b82800160010185558215611908579182015b828111156119075782518255916020019190600101906118ec565b5b50905061191591906119e8565b5090565b6060604051908101604052806060815260200160608152602001606081525090565b82805482825590600052602060002090810192821561198a579160200282015b82811115611989578251829080519060200190611979929190611899565b509160200191906001019061195b565b5b5090506119979190611a0d565b5090565b8280548282559060005260206000209081019282156119d7579160200282015b828111156119d65782518255916020019190600101906119bb565b5b5090506119e491906119e8565b5090565b611a0a91905b80821115611a065760008160009055506001016119ee565b5090565b90565b611a3691905b80821115611a325760008181611a299190611a39565b50600101611a13565b5090565b90565b50805460018160011615610100020316600290046000825580601f10611a5f5750611a7e565b601f016020900490600052602060002090810190611a7d91906119e8565b5b50565b600082601f8301121515611a9457600080fd5b8135611aa7611aa28261237e565b612351565b9150818183526020840193506020810190508360005b83811015611aed5781358601611ad38882611b7c565b845260208401935060208301925050600181019050611abd565b5050505092915050565b600082601f8301121515611b0a57600080fd5b8135611b1d611b18826123a6565b612351565b91508181835260208401935060208101905083856020840282011115611b4257600080fd5b60005b83811015611b725781611b588882611e4c565b845260208401935060208301925050600181019050611b45565b5050505092915050565b600082601f8301121515611b8f57600080fd5b8135611ba2611b9d826123ce565b612351565b91508082526020830160208301858383011115611bbe57600080fd5b611bc98382846124b4565b50505092915050565b600082601f8301121515611be557600080fd5b8135611bf8611bf3826123fa565b612351565b91508082526020830160208301858383011115611c1457600080fd5b611c1f8382846124b4565b50505092915050565b600060608284031215611c3a57600080fd5b611c446060612351565b9050600082013567ffffffffffffffff811115611c6057600080fd5b611c6c84828501611b7c565b600083015250602082013567ffffffffffffffff811115611c8c57600080fd5b611c9884828501611b7c565b602083015250604082013567ffffffffffffffff811115611cb857600080fd5b611cc484828501611b7c565b60408301525092915050565b600060608284031215611ce257600080fd5b611cec6060612351565b9050600082013567ffffffffffffffff811115611d0857600080fd5b611d1484828501611b7c565b600083015250602082013567ffffffffffffffff811115611d3457600080fd5b611d4084828501611b7c565b602083015250604082013567ffffffffffffffff811115611d6057600080fd5b611d6c84828501611b7c565b60408301525092915050565b600060808284031215611d8a57600080fd5b611d946080612351565b9050600082013567ffffffffffffffff811115611db057600080fd5b611dbc84828501611b7c565b600083015250602082013567ffffffffffffffff811115611ddc57600080fd5b611de884828501611b7c565b602083015250604082013567ffffffffffffffff811115611e0857600080fd5b611e1484828501611a81565b604083015250606082013567ffffffffffffffff811115611e3457600080fd5b611e4084828501611af7565b60608301525092915050565b6000611e5882356124aa565b905092915050565b60008060408385031215611e7357600080fd5b600083013567ffffffffffffffff811115611e8d57600080fd5b611e9985828601611bd2565b925050602083013567ffffffffffffffff811115611eb657600080fd5b611ec285828601611bd2565b9150509250929050565b600080600060608486031215611ee157600080fd5b600084013567ffffffffffffffff811115611efb57600080fd5b611f0786828701611bd2565b935050602084013567ffffffffffffffff811115611f2457600080fd5b611f3086828701611bd2565b925050604084013567ffffffffffffffff811115611f4d57600080fd5b611f5986828701611d78565b9150509250925092565b60008060408385031215611f7657600080fd5b600083013567ffffffffffffffff811115611f9057600080fd5b611f9c85828601611bd2565b925050602083013567ffffffffffffffff811115611fb957600080fd5b611fc585828601611c28565b9150509250929050565b60008060408385031215611fe257600080fd5b600083013567ffffffffffffffff811115611ffc57600080fd5b61200885828601611bd2565b925050602083013567ffffffffffffffff81111561202557600080fd5b61203185828601611cd0565b9150509250929050565b60006120468261244d565b8084526020840193508360208202850161205f85612426565b60005b8481101561209857838303885261207a838351612172565b925061208582612479565b9150602088019750600181019050612062565b508196508694505050505092915050565b60006120b482612458565b808452602084019350836020820285016120cd85612433565b60005b848110156121065783830388526120e8838351612264565b92506120f382612486565b91506020880197506001810190506120d0565b508196508694505050505092915050565b600061212282612463565b80845260208401935061213483612440565b60005b828110156121665761214a8683516122dc565b61215382612493565b9150602086019550600181019050612137565b50849250505092915050565b600061217d8261246e565b8084526121918160208601602086016124c3565b61219a816124f6565b602085010191505092915050565b600060608301600083015184820360008601526121c58282612172565b915050602083015184820360208601526121df8282612172565b915050604083015184820360408601526121f98282612172565b9150508091505092915050565b600060608301600083015184820360008601526122238282612172565b9150506020830151848203602086015261223d8282612172565b915050604083015184820360408601526122578282612172565b9150508091505092915050565b600060808301600083015184820360008601526122818282612172565b9150506020830151848203602086015261229b8282612172565b915050604083015184820360408601526122b5828261203b565b915050606083015184820360608601526122cf8282612117565b9150508091505092915050565b6122e5816124a0565b82525050565b6000602082019050818103600083015261230581846120a9565b905092915050565b6000602082019050818103600083015261232781846121a8565b905092915050565b600060208201905081810360008301526123498184612206565b905092915050565b6000604051905081810181811067ffffffffffffffff8211171561237457600080fd5b8060405250919050565b600067ffffffffffffffff82111561239557600080fd5b602082029050602081019050919050565b600067ffffffffffffffff8211156123bd57600080fd5b602082029050602081019050919050565b600067ffffffffffffffff8211156123e557600080fd5b601f19601f8301169050602081019050919050565b600067ffffffffffffffff82111561241157600080fd5b601f19601f8301169050602081019050919050565b6000602082019050919050565b6000602082019050919050565b6000602082019050919050565b600081519050919050565b600081519050919050565b600081519050919050565b600081519050919050565b6000602082019050919050565b6000602082019050919050565b6000602082019050919050565b6000819050919050565b6000819050919050565b82818337600083830152505050565b60005b838110156124e15780820151818401526020810190506124c6565b838111156124f0576000848401525b50505050565b6000601f19601f830116905091905056fea265627a7a723058200188a8e80e9896faa2e3aec92addea5e7326f0bd4bdd6d11ea28a676c2f7bab16c6578706572696d656e74616cf50037",
  "source": "pragma solidity ^0.5.0;\npragma experimental ABIEncoderV2;\ncontract InnovationLab {\n    \n    constructor() payable public {\n        \n    }\n    \n    struct Doctor {\n        string doctorName;\n        string doctorDoB;\n        string doctorId;\n    }\n    \n    struct Patient {\n        string patientName;\n        string patientDoB;\n        string patientId;\n    }\n    \n    struct medicalRecord {\n        string prescription;\n        string diagnosis;\n        string[] medicines;\n        uint[] quantity;\n    }\n    \n    mapping (address => uint) character;\n    mapping (address => Doctor) doctors_details;\n    mapping (address => Patient) patients_details;\n    mapping (string => string) idCheck; // aadhaar => dob\n    mapping (string => medicalRecord[]) medical_records; //aadhaar\n    \n    modifier doctorOnly(){\n        require(character[msg.sender]==1);\n        _;\n    }\n    \n    modifier patientOnly(){\n        require(character[msg.sender]==2);\n        _;\n    }\n    \n    function hash(string memory _x) internal pure returns(bytes32) {\n        return keccak256(abi.encodePacked(_x));\n    }\n    \n    function doctorFirstLogin(string memory _x, Doctor memory y) public {\n        require(hash(_x)==hash(\"Doctor\"));\n        require(character[msg.sender]==0);\n        character[msg.sender] = 1;\n        idCheck[y.doctorId] = y.doctorDoB;\n        doctors_details[msg.sender] = y;\n    }\n    \n    function patientFirstLogin(string memory _x, Patient memory y) public {\n        require(hash(_x)==hash(\"Patient\"));\n        require(character[msg.sender]==0);\n        character[msg.sender] = 2;\n        idCheck[y.patientId] = y.patientDoB;\n        patients_details[msg.sender] = y;\n    }\n    \n    \n    function readPatientDetails() public view patientOnly returns(Patient memory) {\n        return patients_details[msg.sender];\n    }\n    \n    function readDoctorDetails() public view doctorOnly returns(Doctor memory) {\n        return doctors_details[msg.sender];\n    }\n    \n    function readMedicalRecord(string memory _patientDoB, string memory _patientId) public view returns(medicalRecord[] memory) {\n        if(character[msg.sender]==1){\n            require(hash(idCheck[_patientId]) == hash(_patientDoB));\n            return medical_records[_patientId];\n        }\n        else if(character[msg.sender]==2){\n            require(hash(patients_details[msg.sender].patientId) == hash(_patientId));\n            require(hash(patients_details[msg.sender].patientDoB) == hash(_patientDoB));\n            return medical_records[_patientId];\n        }\n    }\n    \n    function writeMedicalRecord(string memory _patientDoB, string memory _patientId, medicalRecord memory y) doctorOnly public {\n        require(hash(idCheck[_patientId]) == hash(_patientDoB));\n        medical_records[_patientId].push(y);\n    }\n\n    // testInstance.set(23,{from:'0xddfc6d4c689a1d0e9322106234d3eba016bcd9c6'})\n    // value = await testInstance.get.call({from:accounts[0]})\n    // undefined\n    // truffle(development)> value\n    // <BN: 17>\n    // truffle(development)> value.toNumber()\n\n    // Our case\n    // let instance = await InnovationLab.deployed()\n    // let accounts = await web3.eth.getAccounts()\n    // instance.doctorFirstLogin(\"Doctor\",[\"dName1\",\"dDob1\",\"dId1\"],{from:accounts[0]})\n    // instance.readDoctorDetails(accounts[0],{from:accounts[0]})\n    // instance.patientFirstLogin(\"Patient\",[\"pName1\",\"pDob1\",\"pId1\"],{from:accounts[1]})\n    // instance.readPatientDetails(accounts[1],{from:accounts[1]})\n    // instance.writeMedicalRecord(\"pDob1\",\"pId1\",[\"prescription1\",\"diagnosis1\",[\"med1\",\"med2\"],[10,20]],{from:accounts[0]})\n    // instance.readMedicalRecord(\"pDob1\",\"pId1\",{from:accounts[0]})\n    // instance.readMedicalRecord(\"pDob1\",\"pId1\",{from:accounts[1]})\n    // instance.writeMedicalRecord(\"pDob1\",\"pId1\",[\"prescription2\",\"diagnosis2\",[\"med1\",\"med2\"],[15,25]],{from:accounts[0]})\n    // instance.readMedicalRecord(\"pDob1\",\"pId1\",{from:accounts[1]})\n\n\n\n}",
  "sourcePath": "/Users/AkJn/Downloads/Hospital-Management/contracts/InnovationLab.sol",
  "compiler": {
    "name": "solc",
    "version": "0.5.0+commit.1d4f565a.Emscripten.clang"
  },
  "schemaVersion": "3.0.6",
  "updatedAt": "2019-04-25T05:29:57.211Z",
  "devdoc": {
    "methods": {}
  },
  "userdoc": {
    "methods": {}
  }
}